{
  "contractName": "Todolist",
  "abi": [
    {
      "inputs": [],
      "name": "name",
      "outputs": [
        {
          "internalType": "string",
          "name": "",
          "type": "string"
        }
      ],
      "stateMutability": "view",
      "type": "function"
    }
  ],
  "bytecode": "0x60c0604052600560809081527f596173617300000000000000000000000000000000000000000000000000000060a05260009061003c9082610120565b5034801561004957600080fd5b506101e6565b7f4e487b7100000000000000000000000000000000000000000000000000000000600052604160045260246000fd5b60028104600182168061009257607f821691505b6020821081036100cb577f4e487b7100000000000000000000000000000000000000000000000000000000600052602260045260246000fd5b50919050565b601f82111561011b576000818152602081206020601f860104810160208610156100f85750805b6020601f860104820191505b8181101561011757828155600101610104565b5050505b505050565b815167ffffffffffffffff81111561013a5761013a61004f565b61014e81610148845461007e565b846100d1565b602080601f831160018114610187576000841561016b5750858301515b60028086026008870290910a6000190419821617865550610117565b600085815260208120601f198616915b828110156101b657888601518255948401946001909101908401610197565b50858210156101d657878501516008601f88160260020a60001904191681555b5050505050600202600101905550565b6101cf806101f56000396000f3fe608060405234801561001057600080fd5b5060043610610047577c0100000000000000000000000000000000000000000000000000000000600035046306fdde03811461004c575b600080fd5b61005461006a565b60405161006191906100f8565b60405180910390f35b6000805461007790610146565b80601f01602080910402602001604051908101604052809291908181526020018280546100a390610146565b80156100f05780601f106100c5576101008083540402835291602001916100f0565b820191906000526020600020905b8154815290600101906020018083116100d357829003601f168201915b505050505081565b600060208083528351808285015260005b8181101561012557858101830151858201604001528201610109565b506000604082860101526040601f19601f8301168501019250505092915050565b60028104600182168061015a57607f821691505b602082108103610193577f4e487b7100000000000000000000000000000000000000000000000000000000600052602260045260246000fd5b5091905056fea2646970667358221220f7cdf070c184a3137bae890c70995a2e23a39411c58efbd4bff3aa46e5977b7964736f6c63430008110033",
  "immutableReferences": {},
  "source": "pragma solidity 0.8.17;\r\n\r\ncontract Todolist{\r\n    string public name=\"Yasas\";\r\n}",
  "sourcePath": "d:\\Truffle\\pr1\\contracts\\Todolist.sol",
  "compiler": {
    "name": "solc",
    "version": "0.8.17+commit.8df45f5f.Emscripten.clang"
  },
  "schemaVersion": "3.4.10",
  "updatedAt": "2022-11-25T06:05:12.432Z",
  "devdoc": {
    "kind": "dev",
    "methods": {},
    "version": 1
  },
  "userdoc": {
    "kind": "user",
    "methods": {},
    "version": 1
  }
}