{
  "contractName": "Num",
  "abi": [
    {
      "inputs": [],
      "name": "w",
      "outputs": [
        {
          "internalType": "uint256",
          "name": "",
          "type": "uint256"
        }
      ],
      "stateMutability": "view",
      "type": "function",
      "constant": true
    },
    {
      "inputs": [],
      "name": "A",
      "outputs": [
        {
          "internalType": "uint256",
          "name": "",
          "type": "uint256"
        }
      ],
      "stateMutability": "nonpayable",
      "type": "function"
    }
  ],
  "bytecode": "0x608060405234801561001057600080fd5b506102b0806100206000396000f3fe608060405234801561001057600080fd5b50600436106100365760003560e01c8063205c9cc71461003b578063f446c1d014610059575b600080fd5b610043610077565b6040516100509190610138565b60405180910390f35b61006161007d565b60405161006e9190610138565b60405180910390f35b60005481565b6000806001819055505b600360015410156101175760006002819055505b600360025410156100f25760025460026100b59190610182565b6001546000546100c591906101dc565b6100cf91906101dc565b600081905550600260008154809291906100e890610232565b919050555061009b565b60006002819055506001600081548092919061010d90610232565b9190505550610087565b600054905090565b6000819050919050565b6101328161011f565b82525050565b600060208201905061014d6000830184610129565b92915050565b7f4e487b7100000000000000000000000000000000000000000000000000000000600052601160045260246000fd5b600061018d8261011f565b91506101988361011f565b9250817fffffffffffffffffffffffffffffffffffffffffffffffffffffffffffffffff04831182151516156101d1576101d0610153565b5b828202905092915050565b60006101e78261011f565b91506101f28361011f565b9250827fffffffffffffffffffffffffffffffffffffffffffffffffffffffffffffffff0382111561022757610226610153565b5b828201905092915050565b600061023d8261011f565b91507fffffffffffffffffffffffffffffffffffffffffffffffffffffffffffffffff820361026f5761026e610153565b5b60018201905091905056fea264697066735822122008a578db7e0fd6b9d4aa32ad151e9988025a2751fa25aac291fea415b1fcd3e564736f6c634300080d0033",
  "immutableReferences": {},
  "source": "pragma solidity ^0.8.7;\r\n\r\ncontract Num{\r\n  uint public w;\r\n  uint i;\r\n  uint j;\r\n    function A() external  returns (uint) {\r\n      for( i=0;i<3;i++){\r\n\r\n        for( j=0;j<3;j++){\r\n\r\n            w=w+i+2*j;\r\n          \r\n\r\n        }\r\n         j=0;\r\n      }\r\n      return w;\r\n     }\r\n    }",
  "sourcePath": "d:\\Truffle\\project2\\contracts\\Num.sol",
  "compiler": {
    "name": "solc",
    "version": "0.8.13+commit.abaa5c0e.Emscripten.clang"
  },
  "schemaVersion": "3.4.10",
  "updatedAt": "2022-10-10T06:47:01.827Z",
  "networkType": "ethereum",
  "devdoc": {
    "kind": "dev",
    "methods": {},
    "version": 1
  },
  "userdoc": {
    "kind": "user",
    "methods": {},
    "version": 1
  }
}